{
  "_format": "hh-sol-artifact-1",
  "contractName": "NFTMaker",
  "sourceName": "contracts/NFTMaker.sol",
  "abi": [
    {
      "inputs": [],
      "stateMutability": "nonpayable",
      "type": "constructor"
    },
    {
      "anonymous": false,
      "inputs": [
        {
          "indexed": true,
          "internalType": "address",
          "name": "owner",
          "type": "address"
        },
        {
          "indexed": true,
          "internalType": "address",
          "name": "approved",
          "type": "address"
        },
        {
          "indexed": true,
          "internalType": "uint256",
          "name": "tokenId",
          "type": "uint256"
        }
      ],
      "name": "Approval",
      "type": "event"
    },
    {
      "anonymous": false,
      "inputs": [
        {
          "indexed": true,
          "internalType": "address",
          "name": "owner",
          "type": "address"
        },
        {
          "indexed": true,
          "internalType": "address",
          "name": "operator",
          "type": "address"
        },
        {
          "indexed": false,
          "internalType": "bool",
          "name": "approved",
          "type": "bool"
        }
      ],
      "name": "ApprovalForAll",
      "type": "event"
    },
    {
      "anonymous": false,
      "inputs": [
        {
          "indexed": false,
          "internalType": "address",
          "name": "sender",
          "type": "address"
        },
        {
          "indexed": false,
          "internalType": "uint256",
          "name": "tokenId",
          "type": "uint256"
        }
      ],
      "name": "NewNFTMinted",
      "type": "event"
    },
    {
      "anonymous": false,
      "inputs": [
        {
          "indexed": true,
          "internalType": "address",
          "name": "from",
          "type": "address"
        },
        {
          "indexed": true,
          "internalType": "address",
          "name": "to",
          "type": "address"
        },
        {
          "indexed": true,
          "internalType": "uint256",
          "name": "tokenId",
          "type": "uint256"
        }
      ],
      "name": "Transfer",
      "type": "event"
    },
    {
      "inputs": [
        {
          "internalType": "address",
          "name": "to",
          "type": "address"
        },
        {
          "internalType": "uint256",
          "name": "tokenId",
          "type": "uint256"
        }
      ],
      "name": "approve",
      "outputs": [],
      "stateMutability": "nonpayable",
      "type": "function"
    },
    {
      "inputs": [
        {
          "internalType": "address",
          "name": "owner",
          "type": "address"
        }
      ],
      "name": "balanceOf",
      "outputs": [
        {
          "internalType": "uint256",
          "name": "",
          "type": "uint256"
        }
      ],
      "stateMutability": "view",
      "type": "function"
    },
    {
      "inputs": [
        {
          "internalType": "uint256",
          "name": "tokenId",
          "type": "uint256"
        }
      ],
      "name": "getApproved",
      "outputs": [
        {
          "internalType": "address",
          "name": "",
          "type": "address"
        }
      ],
      "stateMutability": "view",
      "type": "function"
    },
    {
      "inputs": [
        {
          "internalType": "address",
          "name": "owner",
          "type": "address"
        },
        {
          "internalType": "address",
          "name": "operator",
          "type": "address"
        }
      ],
      "name": "isApprovedForAll",
      "outputs": [
        {
          "internalType": "bool",
          "name": "",
          "type": "bool"
        }
      ],
      "stateMutability": "view",
      "type": "function"
    },
    {
      "inputs": [
        {
          "internalType": "string",
          "name": "name",
          "type": "string"
        },
        {
          "internalType": "string",
          "name": "imageURI",
          "type": "string"
        },
        {
          "internalType": "string",
          "name": "description",
          "type": "string"
        }
      ],
      "name": "mintNFT",
      "outputs": [],
      "stateMutability": "nonpayable",
      "type": "function"
    },
    {
      "inputs": [],
      "name": "name",
      "outputs": [
        {
          "internalType": "string",
          "name": "",
          "type": "string"
        }
      ],
      "stateMutability": "view",
      "type": "function"
    },
    {
      "inputs": [
        {
          "internalType": "uint256",
          "name": "tokenId",
          "type": "uint256"
        }
      ],
      "name": "ownerOf",
      "outputs": [
        {
          "internalType": "address",
          "name": "",
          "type": "address"
        }
      ],
      "stateMutability": "view",
      "type": "function"
    },
    {
      "inputs": [
        {
          "internalType": "address",
          "name": "from",
          "type": "address"
        },
        {
          "internalType": "address",
          "name": "to",
          "type": "address"
        },
        {
          "internalType": "uint256",
          "name": "tokenId",
          "type": "uint256"
        }
      ],
      "name": "safeTransferFrom",
      "outputs": [],
      "stateMutability": "nonpayable",
      "type": "function"
    },
    {
      "inputs": [
        {
          "internalType": "address",
          "name": "from",
          "type": "address"
        },
        {
          "internalType": "address",
          "name": "to",
          "type": "address"
        },
        {
          "internalType": "uint256",
          "name": "tokenId",
          "type": "uint256"
        },
        {
          "internalType": "bytes",
          "name": "data",
          "type": "bytes"
        }
      ],
      "name": "safeTransferFrom",
      "outputs": [],
      "stateMutability": "nonpayable",
      "type": "function"
    },
    {
      "inputs": [
        {
          "internalType": "address",
          "name": "operator",
          "type": "address"
        },
        {
          "internalType": "bool",
          "name": "approved",
          "type": "bool"
        }
      ],
      "name": "setApprovalForAll",
      "outputs": [],
      "stateMutability": "nonpayable",
      "type": "function"
    },
    {
      "inputs": [
        {
          "internalType": "bytes4",
          "name": "interfaceId",
          "type": "bytes4"
        }
      ],
      "name": "supportsInterface",
      "outputs": [
        {
          "internalType": "bool",
          "name": "",
          "type": "bool"
        }
      ],
      "stateMutability": "view",
      "type": "function"
    },
    {
      "inputs": [],
      "name": "symbol",
      "outputs": [
        {
          "internalType": "string",
          "name": "",
          "type": "string"
        }
      ],
      "stateMutability": "view",
      "type": "function"
    },
    {
      "inputs": [
        {
          "internalType": "uint256",
          "name": "_tokenId",
          "type": "uint256"
        }
      ],
      "name": "tokenURI",
      "outputs": [
        {
          "internalType": "string",
          "name": "",
          "type": "string"
        }
      ],
      "stateMutability": "view",
      "type": "function"
    },
    {
      "inputs": [
        {
          "internalType": "address",
          "name": "from",
          "type": "address"
        },
        {
          "internalType": "address",
          "name": "to",
          "type": "address"
        },
        {
          "internalType": "uint256",
          "name": "tokenId",
          "type": "uint256"
        }
      ],
      "name": "transferFrom",
      "outputs": [],
      "stateMutability": "nonpayable",
      "type": "function"
    }
  ],
  "bytecode": "0x60806040523480156200001157600080fd5b506040518060400160405280600e81526020017f4e4654436f6c6c656374696f6e730000000000000000000000000000000000008152506040518060400160405280600381526020017f6e66740000000000000000000000000000000000000000000000000000000000815250816000908051906020019062000096929190620001cf565b508060019080519060200190620000af929190620001cf565b505050620000fd6040518060400160405280601881526020017f4e465420436f6c6c656374696f6e7320436f6e747261637400000000000000008152506200010360201b62000b1b1760201c565b620003ac565b620001a3816040516024016200011a919062000323565b6040516020818303038152906040527f41304fac000000000000000000000000000000000000000000000000000000007bffffffffffffffffffffffffffffffffffffffffffffffffffffffff19166020820180517bffffffffffffffffffffffffffffffffffffffffffffffffffffffff8381831617835250505050620001a660201b60201c565b50565b60008151905060006a636f6e736f6c652e6c6f679050602083016000808483855afa5050505050565b828054620001dd9062000376565b90600052602060002090601f0160209004810192826200020157600085556200024d565b82601f106200021c57805160ff19168380011785556200024d565b828001600101855582156200024d579182015b828111156200024c5782518255916020019190600101906200022f565b5b5090506200025c919062000260565b5090565b5b808211156200027b57600081600090555060010162000261565b5090565b600081519050919050565b600082825260208201905092915050565b60005b83811015620002bb5780820151818401526020810190506200029e565b83811115620002cb576000848401525b50505050565b6000601f19601f8301169050919050565b6000620002ef826200027f565b620002fb81856200028a565b93506200030d8185602086016200029b565b6200031881620002d1565b840191505092915050565b600060208201905081810360008301526200033f8184620002e2565b905092915050565b7f4e487b7100000000000000000000000000000000000000000000000000000000600052602260045260246000fd5b600060028204905060018216806200038f57607f821691505b60208210811415620003a657620003a562000347565b5b50919050565b61319f80620003bc6000396000f3fe608060405234801561001057600080fd5b50600436106100ea5760003560e01c80636352211e1161008c578063a22cb46511610066578063a22cb4651461025b578063b88d4fde14610277578063c87b56dd14610293578063e985e9c5146102c3576100ea565b80636352211e146101dd57806370a082311461020d57806395d89b411461023d576100ea565b8063095ea7b3116100c8578063095ea7b31461016d5780630c3b7b721461018957806323b872dd146101a557806342842e0e146101c1576100ea565b806301ffc9a7146100ef57806306fdde031461011f578063081812fc1461013d575b600080fd5b61010960048036038101906101049190611e3b565b6102f3565b6040516101169190611e83565b60405180910390f35b6101276103d5565b6040516101349190611f37565b60405180910390f35b61015760048036038101906101529190611f8f565b610467565b6040516101649190611ffd565b60405180910390f35b61018760048036038101906101829190612044565b6104ad565b005b6101a3600480360381019061019e91906121b9565b6105c5565b005b6101bf60048036038101906101ba9190612260565b6106e8565b005b6101db60048036038101906101d69190612260565b610748565b005b6101f760048036038101906101f29190611f8f565b610768565b6040516102049190611ffd565b60405180910390f35b610227600480360381019061022291906122b3565b6107ef565b60405161023491906122ef565b60405180910390f35b6102456108a7565b6040516102529190611f37565b60405180910390f35b61027560048036038101906102709190612336565b610939565b005b610291600480360381019061028c9190612417565b61094f565b005b6102ad60048036038101906102a89190611f8f565b6109b1565b6040516102ba9190611f37565b60405180910390f35b6102dd60048036038101906102d8919061249a565b610a87565b6040516102ea9190611e83565b60405180910390f35b60007f80ac58cd000000000000000000000000000000000000000000000000000000007bffffffffffffffffffffffffffffffffffffffffffffffffffffffff1916827bffffffffffffffffffffffffffffffffffffffffffffffffffffffff191614806103be57507f5b5e139f000000000000000000000000000000000000000000000000000000007bffffffffffffffffffffffffffffffffffffffffffffffffffffffff1916827bffffffffffffffffffffffffffffffffffffffffffffffffffffffff1916145b806103ce57506103cd82610bb4565b5b9050919050565b6060600080546103e490612509565b80601f016020809104026020016040519081016040528092919081815260200182805461041090612509565b801561045d5780601f106104325761010080835404028352916020019161045d565b820191906000526020600020905b81548152906001019060200180831161044057829003601f168201915b5050505050905090565b600061047282610c1e565b6004600083815260200190815260200160002060009054906101000a900473ffffffffffffffffffffffffffffffffffffffff169050919050565b60006104b882610768565b90508073ffffffffffffffffffffffffffffffffffffffff168373ffffffffffffffffffffffffffffffffffffffff161415610529576040517f08c379a0000000000000000000000000000000000000000000000000000000008152600401610520906125ad565b60405180910390fd5b8073ffffffffffffffffffffffffffffffffffffffff16610548610c69565b73ffffffffffffffffffffffffffffffffffffffff161480610577575061057681610571610c69565b610a87565b5b6105b6576040517f08c379a00000000000000000000000000000000000000000000000000000000081526004016105ad9061263f565b60405180910390fd5b6105c08383610c71565b505050565b60006105d16007610d2a565b90506105dd3382610d38565b60066040518060600160405280868152602001858152602001848152509080600181540180825580915050600190039060005260206000209060030201600090919091909150600082015181600001908051906020019061063f929190611d2c565b50602082015181600101908051906020019061065c929190611d2c565b506040820151816002019080519060200190610679929190611d2c565b50505061069f604051806060016040528060258152602001613105602591398233610d56565b6106a96007610df5565b7f1c05098ed1ff38e6238d2b1b04b2c7977d4c94ce651bda6473f9dba8dbf01da033826040516106da92919061265f565b60405180910390a150505050565b6106f96106f3610c69565b82610e0b565b610738576040517f08c379a000000000000000000000000000000000000000000000000000000000815260040161072f906126fa565b60405180910390fd5b610743838383610ea0565b505050565b6107638383836040518060200160405280600081525061094f565b505050565b6000806107748361119a565b9050600073ffffffffffffffffffffffffffffffffffffffff168173ffffffffffffffffffffffffffffffffffffffff1614156107e6576040517f08c379a00000000000000000000000000000000000000000000000000000000081526004016107dd90612766565b60405180910390fd5b80915050919050565b60008073ffffffffffffffffffffffffffffffffffffffff168273ffffffffffffffffffffffffffffffffffffffff161415610860576040517f08c379a0000000000000000000000000000000000000000000000000000000008152600401610857906127f8565b60405180910390fd5b600360008373ffffffffffffffffffffffffffffffffffffffff1673ffffffffffffffffffffffffffffffffffffffff168152602001908152602001600020549050919050565b6060600180546108b690612509565b80601f01602080910402602001604051908101604052809291908181526020018280546108e290612509565b801561092f5780601f106109045761010080835404028352916020019161092f565b820191906000526020600020905b81548152906001019060200180831161091257829003601f168201915b5050505050905090565b61094b610944610c69565b83836111d7565b5050565b61096061095a610c69565b83610e0b565b61099f576040517f08c379a0000000000000000000000000000000000000000000000000000000008152600401610996906126fa565b60405180910390fd5b6109ab84848484611344565b50505050565b60606000610a57600684815481106109cc576109cb612818565b5b90600052602060002090600302016000016109e6856113a0565b600686815481106109fa576109f9612818565b5b906000526020600020906003020160020160068781548110610a1f57610a1e612818565b5b9060005260206000209060030201600101604051602001610a439493929190612a93565b604051602081830303815290604052611478565b9050600081604051602001610a6c9190612b54565b60405160208183030381529060405290508092505050919050565b6000600560008473ffffffffffffffffffffffffffffffffffffffff1673ffffffffffffffffffffffffffffffffffffffff16815260200190815260200160002060008373ffffffffffffffffffffffffffffffffffffffff1673ffffffffffffffffffffffffffffffffffffffff16815260200190815260200160002060009054906101000a900460ff16905092915050565b610bb181604051602401610b2f9190611f37565b6040516020818303038152906040527f41304fac000000000000000000000000000000000000000000000000000000007bffffffffffffffffffffffffffffffffffffffffffffffffffffffff19166020820180517bffffffffffffffffffffffffffffffffffffffffffffffffffffffff8381831617835250505050611610565b50565b60007f01ffc9a7000000000000000000000000000000000000000000000000000000007bffffffffffffffffffffffffffffffffffffffffffffffffffffffff1916827bffffffffffffffffffffffffffffffffffffffffffffffffffffffff1916149050919050565b610c2781611639565b610c66576040517f08c379a0000000000000000000000000000000000000000000000000000000008152600401610c5d90612766565b60405180910390fd5b50565b600033905090565b816004600083815260200190815260200160002060006101000a81548173ffffffffffffffffffffffffffffffffffffffff021916908373ffffffffffffffffffffffffffffffffffffffff160217905550808273ffffffffffffffffffffffffffffffffffffffff16610ce483610768565b73ffffffffffffffffffffffffffffffffffffffff167f8c5be1e5ebec7d5bd14f71427d1e84f3dd0314c0f7b2291e5b200ac8c7c3b92560405160405180910390a45050565b600081600001549050919050565b610d5282826040518060200160405280600081525061167a565b5050565b610df0838383604051602401610d6e93929190612b76565b6040516020818303038152906040527f1c7ec448000000000000000000000000000000000000000000000000000000007bffffffffffffffffffffffffffffffffffffffffffffffffffffffff19166020820180517bffffffffffffffffffffffffffffffffffffffffffffffffffffffff8381831617835250505050611610565b505050565b6001816000016000828254019250508190555050565b600080610e1783610768565b90508073ffffffffffffffffffffffffffffffffffffffff168473ffffffffffffffffffffffffffffffffffffffff161480610e595750610e588185610a87565b5b80610e9757508373ffffffffffffffffffffffffffffffffffffffff16610e7f84610467565b73ffffffffffffffffffffffffffffffffffffffff16145b91505092915050565b8273ffffffffffffffffffffffffffffffffffffffff16610ec082610768565b73ffffffffffffffffffffffffffffffffffffffff1614610f16576040517f08c379a0000000000000000000000000000000000000000000000000000000008152600401610f0d90612c26565b60405180910390fd5b600073ffffffffffffffffffffffffffffffffffffffff168273ffffffffffffffffffffffffffffffffffffffff161415610f86576040517f08c379a0000000000000000000000000000000000000000000000000000000008152600401610f7d90612cb8565b60405180910390fd5b610f9383838360016116d5565b8273ffffffffffffffffffffffffffffffffffffffff16610fb382610768565b73ffffffffffffffffffffffffffffffffffffffff1614611009576040517f08c379a000000000000000000000000000000000000000000000000000000000815260040161100090612c26565b60405180910390fd5b6004600082815260200190815260200160002060006101000a81549073ffffffffffffffffffffffffffffffffffffffff02191690556001600360008573ffffffffffffffffffffffffffffffffffffffff1673ffffffffffffffffffffffffffffffffffffffff168152602001908152602001600020600082825403925050819055506001600360008473ffffffffffffffffffffffffffffffffffffffff1673ffffffffffffffffffffffffffffffffffffffff16815260200190815260200160002060008282540192505081905550816002600083815260200190815260200160002060006101000a81548173ffffffffffffffffffffffffffffffffffffffff021916908373ffffffffffffffffffffffffffffffffffffffff160217905550808273ffffffffffffffffffffffffffffffffffffffff168473ffffffffffffffffffffffffffffffffffffffff167fddf252ad1be2c89b69c2b068fc378daa952ba7f163c4a11628f55a4df523b3ef60405160405180910390a461119583838360016117fb565b505050565b60006002600083815260200190815260200160002060009054906101000a900473ffffffffffffffffffffffffffffffffffffffff169050919050565b8173ffffffffffffffffffffffffffffffffffffffff168373ffffffffffffffffffffffffffffffffffffffff161415611246576040517f08c379a000000000000000000000000000000000000000000000000000000000815260040161123d90612d24565b60405180910390fd5b80600560008573ffffffffffffffffffffffffffffffffffffffff1673ffffffffffffffffffffffffffffffffffffffff16815260200190815260200160002060008473ffffffffffffffffffffffffffffffffffffffff1673ffffffffffffffffffffffffffffffffffffffff16815260200190815260200160002060006101000a81548160ff0219169083151502179055508173ffffffffffffffffffffffffffffffffffffffff168373ffffffffffffffffffffffffffffffffffffffff167f17307eab39ab6107e8899845ad3d59bd9653f200f220920489ca2b5937696c31836040516113379190611e83565b60405180910390a3505050565b61134f848484610ea0565b61135b84848484611801565b61139a576040517f08c379a000000000000000000000000000000000000000000000000000000000815260040161139190612db6565b60405180910390fd5b50505050565b6060600060016113af84611998565b01905060008167ffffffffffffffff8111156113ce576113cd61208e565b5b6040519080825280601f01601f1916602001820160405280156114005781602001600182028036833780820191505090505b509050600082602001820190505b60011561146d578080600190039150507f3031323334353637383961626364656600000000000000000000000000000000600a86061a8153600a858161145757611456612dd6565b5b04945060008514156114685761146d565b61140e565b819350505050919050565b606060008251905060008114156114a1576040518060200160405280600081525091505061160b565b600060036002836114b29190612e34565b6114bc9190612e8a565b60046114c89190612ebb565b905060006020826114d99190612e34565b67ffffffffffffffff8111156114f2576114f161208e565b5b6040519080825280601f01601f1916602001820160405280156115245781602001600182028036833780820191505090505b509050600060405180606001604052806040815260200161312a604091399050600181016020830160005b868110156115c85760038101905062ffffff818a015116603f8160121c168401518060081b905060ff603f83600c1c1686015116810190508060081b905060ff603f8360061c1686015116810190508060081b905060ff603f831686015116810190508060e01b9050808452600484019350505061154f565b5060038606600181146115e257600281146115f2576115fd565b613d3d60f01b60028303526115fd565b603d60f81b60018303525b508484525050819450505050505b919050565b60008151905060006a636f6e736f6c652e6c6f679050602083016000808483855afa5050505050565b60008073ffffffffffffffffffffffffffffffffffffffff1661165b8361119a565b73ffffffffffffffffffffffffffffffffffffffff1614159050919050565b6116848383611aeb565b6116916000848484611801565b6116d0576040517f08c379a00000000000000000000000000000000000000000000000000000000081526004016116c790612db6565b60405180910390fd5b505050565b60018111156117f557600073ffffffffffffffffffffffffffffffffffffffff168473ffffffffffffffffffffffffffffffffffffffff16146117695780600360008673ffffffffffffffffffffffffffffffffffffffff1673ffffffffffffffffffffffffffffffffffffffff16815260200190815260200160002060008282546117619190612f15565b925050819055505b600073ffffffffffffffffffffffffffffffffffffffff168373ffffffffffffffffffffffffffffffffffffffff16146117f45780600360008573ffffffffffffffffffffffffffffffffffffffff1673ffffffffffffffffffffffffffffffffffffffff16815260200190815260200160002060008282546117ec9190612e34565b925050819055505b5b50505050565b50505050565b60006118228473ffffffffffffffffffffffffffffffffffffffff16611d09565b1561198b578373ffffffffffffffffffffffffffffffffffffffff1663150b7a0261184b610c69565b8786866040518563ffffffff1660e01b815260040161186d9493929190612f9e565b602060405180830381600087803b15801561188757600080fd5b505af19250505080156118b857506040513d601f19601f820116820180604052508101906118b59190612fff565b60015b61193b573d80600081146118e8576040519150601f19603f3d011682016040523d82523d6000602084013e6118ed565b606091505b50600081511415611933576040517f08c379a000000000000000000000000000000000000000000000000000000000815260040161192a90612db6565b60405180910390fd5b805181602001fd5b63150b7a0260e01b7bffffffffffffffffffffffffffffffffffffffffffffffffffffffff1916817bffffffffffffffffffffffffffffffffffffffffffffffffffffffff191614915050611990565b600190505b949350505050565b600080600090507a184f03e93ff9f4daa797ed6e38ed64bf6a1f01000000000000000083106119f6577a184f03e93ff9f4daa797ed6e38ed64bf6a1f01000000000000000083816119ec576119eb612dd6565b5b0492506040810190505b6d04ee2d6d415b85acef81000000008310611a33576d04ee2d6d415b85acef81000000008381611a2957611a28612dd6565b5b0492506020810190505b662386f26fc100008310611a6257662386f26fc100008381611a5857611a57612dd6565b5b0492506010810190505b6305f5e1008310611a8b576305f5e1008381611a8157611a80612dd6565b5b0492506008810190505b6127108310611ab0576127108381611aa657611aa5612dd6565b5b0492506004810190505b60648310611ad35760648381611ac957611ac8612dd6565b5b0492506002810190505b600a8310611ae2576001810190505b80915050919050565b600073ffffffffffffffffffffffffffffffffffffffff168273ffffffffffffffffffffffffffffffffffffffff161415611b5b576040517f08c379a0000000000000000000000000000000000000000000000000000000008152600401611b5290613078565b60405180910390fd5b611b6481611639565b15611ba4576040517f08c379a0000000000000000000000000000000000000000000000000000000008152600401611b9b906130e4565b60405180910390fd5b611bb26000838360016116d5565b611bbb81611639565b15611bfb576040517f08c379a0000000000000000000000000000000000000000000000000000000008152600401611bf2906130e4565b60405180910390fd5b6001600360008473ffffffffffffffffffffffffffffffffffffffff1673ffffffffffffffffffffffffffffffffffffffff16815260200190815260200160002060008282540192505081905550816002600083815260200190815260200160002060006101000a81548173ffffffffffffffffffffffffffffffffffffffff021916908373ffffffffffffffffffffffffffffffffffffffff160217905550808273ffffffffffffffffffffffffffffffffffffffff16600073ffffffffffffffffffffffffffffffffffffffff167fddf252ad1be2c89b69c2b068fc378daa952ba7f163c4a11628f55a4df523b3ef60405160405180910390a4611d056000838360016117fb565b5050565b6000808273ffffffffffffffffffffffffffffffffffffffff163b119050919050565b828054611d3890612509565b90600052602060002090601f016020900481019282611d5a5760008555611da1565b82601f10611d7357805160ff1916838001178555611da1565b82800160010185558215611da1579182015b82811115611da0578251825591602001919060010190611d85565b5b509050611dae9190611db2565b5090565b5b80821115611dcb576000816000905550600101611db3565b5090565b6000604051905090565b600080fd5b600080fd5b60007fffffffff0000000000000000000000000000000000000000000000000000000082169050919050565b611e1881611de3565b8114611e2357600080fd5b50565b600081359050611e3581611e0f565b92915050565b600060208284031215611e5157611e50611dd9565b5b6000611e5f84828501611e26565b91505092915050565b60008115159050919050565b611e7d81611e68565b82525050565b6000602082019050611e986000830184611e74565b92915050565b600081519050919050565b600082825260208201905092915050565b60005b83811015611ed8578082015181840152602081019050611ebd565b83811115611ee7576000848401525b50505050565b6000601f19601f8301169050919050565b6000611f0982611e9e565b611f138185611ea9565b9350611f23818560208601611eba565b611f2c81611eed565b840191505092915050565b60006020820190508181036000830152611f518184611efe565b905092915050565b6000819050919050565b611f6c81611f59565b8114611f7757600080fd5b50565b600081359050611f8981611f63565b92915050565b600060208284031215611fa557611fa4611dd9565b5b6000611fb384828501611f7a565b91505092915050565b600073ffffffffffffffffffffffffffffffffffffffff82169050919050565b6000611fe782611fbc565b9050919050565b611ff781611fdc565b82525050565b60006020820190506120126000830184611fee565b92915050565b61202181611fdc565b811461202c57600080fd5b50565b60008135905061203e81612018565b92915050565b6000806040838503121561205b5761205a611dd9565b5b60006120698582860161202f565b925050602061207a85828601611f7a565b9150509250929050565b600080fd5b600080fd5b7f4e487b7100000000000000000000000000000000000000000000000000000000600052604160045260246000fd5b6120c682611eed565b810181811067ffffffffffffffff821117156120e5576120e461208e565b5b80604052505050565b60006120f8611dcf565b905061210482826120bd565b919050565b600067ffffffffffffffff8211156121245761212361208e565b5b61212d82611eed565b9050602081019050919050565b82818337600083830152505050565b600061215c61215784612109565b6120ee565b90508281526020810184848401111561217857612177612089565b5b61218384828561213a565b509392505050565b600082601f8301126121a05761219f612084565b5b81356121b0848260208601612149565b91505092915050565b6000806000606084860312156121d2576121d1611dd9565b5b600084013567ffffffffffffffff8111156121f0576121ef611dde565b5b6121fc8682870161218b565b935050602084013567ffffffffffffffff81111561221d5761221c611dde565b5b6122298682870161218b565b925050604084013567ffffffffffffffff81111561224a57612249611dde565b5b6122568682870161218b565b9150509250925092565b60008060006060848603121561227957612278611dd9565b5b60006122878682870161202f565b93505060206122988682870161202f565b92505060406122a986828701611f7a565b9150509250925092565b6000602082840312156122c9576122c8611dd9565b5b60006122d78482850161202f565b91505092915050565b6122e981611f59565b82525050565b600060208201905061230460008301846122e0565b92915050565b61231381611e68565b811461231e57600080fd5b50565b6000813590506123308161230a565b92915050565b6000806040838503121561234d5761234c611dd9565b5b600061235b8582860161202f565b925050602061236c85828601612321565b9150509250929050565b600067ffffffffffffffff8211156123915761239061208e565b5b61239a82611eed565b9050602081019050919050565b60006123ba6123b584612376565b6120ee565b9050828152602081018484840111156123d6576123d5612089565b5b6123e184828561213a565b509392505050565b600082601f8301126123fe576123fd612084565b5b813561240e8482602086016123a7565b91505092915050565b6000806000806080858703121561243157612430611dd9565b5b600061243f8782880161202f565b94505060206124508782880161202f565b935050604061246187828801611f7a565b925050606085013567ffffffffffffffff81111561248257612481611dde565b5b61248e878288016123e9565b91505092959194509250565b600080604083850312156124b1576124b0611dd9565b5b60006124bf8582860161202f565b92505060206124d08582860161202f565b9150509250929050565b7f4e487b7100000000000000000000000000000000000000000000000000000000600052602260045260246000fd5b6000600282049050600182168061252157607f821691505b60208210811415612535576125346124da565b5b50919050565b7f4552433732313a20617070726f76616c20746f2063757272656e74206f776e6560008201527f7200000000000000000000000000000000000000000000000000000000000000602082015250565b6000612597602183611ea9565b91506125a28261253b565b604082019050919050565b600060208201905081810360008301526125c68161258a565b9050919050565b7f4552433732313a20617070726f76652063616c6c6572206973206e6f7420746f60008201527f6b656e206f776e6572206f7220617070726f76656420666f7220616c6c000000602082015250565b6000612629603d83611ea9565b9150612634826125cd565b604082019050919050565b600060208201905081810360008301526126588161261c565b9050919050565b60006040820190506126746000830185611fee565b61268160208301846122e0565b9392505050565b7f4552433732313a2063616c6c6572206973206e6f7420746f6b656e206f776e6560008201527f72206f7220617070726f76656400000000000000000000000000000000000000602082015250565b60006126e4602d83611ea9565b91506126ef82612688565b604082019050919050565b60006020820190508181036000830152612713816126d7565b9050919050565b7f4552433732313a20696e76616c696420746f6b656e2049440000000000000000600082015250565b6000612750601883611ea9565b915061275b8261271a565b602082019050919050565b6000602082019050818103600083015261277f81612743565b9050919050565b7f4552433732313a2061646472657373207a65726f206973206e6f74206120766160008201527f6c6964206f776e65720000000000000000000000000000000000000000000000602082015250565b60006127e2602983611ea9565b91506127ed82612786565b604082019050919050565b60006020820190508181036000830152612811816127d5565b9050919050565b7f4e487b7100000000000000000000000000000000000000000000000000000000600052603260045260246000fd5b600081905092915050565b7f7b226e616d65223a202200000000000000000000000000000000000000000000600082015250565b6000612888600a83612847565b915061289382612852565b600a82019050919050565b60008190508160005260206000209050919050565b600081546128c081612509565b6128ca8186612847565b945060018216600081146128e557600181146128f657612929565b60ff19831686528186019350612929565b6128ff8561289e565b60005b8381101561292157815481890152600182019150602081019050612902565b838801955050505b50505092915050565b7f202d2d204e465420233a20000000000000000000000000000000000000000000600082015250565b6000612968600b83612847565b915061297382612932565b600b82019050919050565b600061298982611e9e565b6129938185612847565b93506129a3818560208601611eba565b80840191505092915050565b7f222c20226465736372697074696f6e223a202200000000000000000000000000600082015250565b60006129e5601383612847565b91506129f0826129af565b601382019050919050565b7f222c2022696d616765223a2022697066733a2f2f000000000000000000000000600082015250565b6000612a31601483612847565b9150612a3c826129fb565b601482019050919050565b7f227d000000000000000000000000000000000000000000000000000000000000600082015250565b6000612a7d600283612847565b9150612a8882612a47565b600282019050919050565b6000612a9e8261287b565b9150612aaa82876128b3565b9150612ab58261295b565b9150612ac1828661297e565b9150612acc826129d8565b9150612ad882856128b3565b9150612ae382612a24565b9150612aef82846128b3565b9150612afa82612a70565b915081905095945050505050565b7f646174613a6170706c69636174696f6e2f6a736f6e3b6261736536342c000000600082015250565b6000612b3e601d83612847565b9150612b4982612b08565b601d82019050919050565b6000612b5f82612b31565b9150612b6b828461297e565b915081905092915050565b60006060820190508181036000830152612b908186611efe565b9050612b9f60208301856122e0565b612bac6040830184611fee565b949350505050565b7f4552433732313a207472616e736665722066726f6d20696e636f72726563742060008201527f6f776e6572000000000000000000000000000000000000000000000000000000602082015250565b6000612c10602583611ea9565b9150612c1b82612bb4565b604082019050919050565b60006020820190508181036000830152612c3f81612c03565b9050919050565b7f4552433732313a207472616e7366657220746f20746865207a65726f2061646460008201527f7265737300000000000000000000000000000000000000000000000000000000602082015250565b6000612ca2602483611ea9565b9150612cad82612c46565b604082019050919050565b60006020820190508181036000830152612cd181612c95565b9050919050565b7f4552433732313a20617070726f766520746f2063616c6c657200000000000000600082015250565b6000612d0e601983611ea9565b9150612d1982612cd8565b602082019050919050565b60006020820190508181036000830152612d3d81612d01565b9050919050565b7f4552433732313a207472616e7366657220746f206e6f6e20455243373231526560008201527f63656976657220696d706c656d656e7465720000000000000000000000000000602082015250565b6000612da0603283611ea9565b9150612dab82612d44565b604082019050919050565b60006020820190508181036000830152612dcf81612d93565b9050919050565b7f4e487b7100000000000000000000000000000000000000000000000000000000600052601260045260246000fd5b7f4e487b7100000000000000000000000000000000000000000000000000000000600052601160045260246000fd5b6000612e3f82611f59565b9150612e4a83611f59565b9250827fffffffffffffffffffffffffffffffffffffffffffffffffffffffffffffffff03821115612e7f57612e7e612e05565b5b828201905092915050565b6000612e9582611f59565b9150612ea083611f59565b925082612eb057612eaf612dd6565b5b828204905092915050565b6000612ec682611f59565b9150612ed183611f59565b9250817fffffffffffffffffffffffffffffffffffffffffffffffffffffffffffffffff0483118215151615612f0a57612f09612e05565b5b828202905092915050565b6000612f2082611f59565b9150612f2b83611f59565b925082821015612f3e57612f3d612e05565b5b828203905092915050565b600081519050919050565b600082825260208201905092915050565b6000612f7082612f49565b612f7a8185612f54565b9350612f8a818560208601611eba565b612f9381611eed565b840191505092915050565b6000608082019050612fb36000830187611fee565b612fc06020830186611fee565b612fcd60408301856122e0565b8181036060830152612fdf8184612f65565b905095945050505050565b600081519050612ff981611e0f565b92915050565b60006020828403121561301557613014611dd9565b5b600061302384828501612fea565b91505092915050565b7f4552433732313a206d696e7420746f20746865207a65726f2061646472657373600082015250565b6000613062602083611ea9565b915061306d8261302c565b602082019050919050565b6000602082019050818103600083015261309181613055565b9050919050565b7f4552433732313a20746f6b656e20616c7265616479206d696e74656400000000600082015250565b60006130ce601c83611ea9565b91506130d982613098565b602082019050919050565b600060208201905081810360008301526130fd816130c1565b905091905056fe416e204e465420772f20494420257320686173206265656e206d696e74656420746f2025734142434445464748494a4b4c4d4e4f505152535455565758595a6162636465666768696a6b6c6d6e6f707172737475767778797a303132333435363738392b2fa26469706673582212208fac7e813fa407b1a326bf0444f6968f36d08fc9d6f34e47e4f32df34bcccb6c64736f6c63430008090033",
  "linkReferences": {},
  "deployedLinkReferences": {}
}